{
  "contractName": "Contacts",
  "abi": [
    {
      "inputs": [],
      "stateMutability": "nonpayable",
      "type": "constructor"
    },
    {
      "inputs": [
        {
          "internalType": "uint256",
          "name": "",
          "type": "uint256"
        }
      ],
      "name": "contacts",
      "outputs": [
        {
          "internalType": "uint256",
          "name": "id",
          "type": "uint256"
        },
        {
          "internalType": "string",
          "name": "name",
          "type": "string"
        },
        {
          "internalType": "string",
          "name": "phone",
          "type": "string"
        }
      ],
      "stateMutability": "view",
      "type": "function"
    },
    {
      "inputs": [],
      "name": "count",
      "outputs": [
        {
          "internalType": "uint256",
          "name": "",
          "type": "uint256"
        }
      ],
      "stateMutability": "view",
      "type": "function"
    },
    {
      "inputs": [
        {
          "internalType": "uint256",
          "name": "_id",
          "type": "uint256"
        }
      ],
      "name": "getContact",
      "outputs": [
        {
          "components": [
            {
              "internalType": "uint256",
              "name": "id",
              "type": "uint256"
            },
            {
              "internalType": "string",
              "name": "name",
              "type": "string"
            },
            {
              "internalType": "string",
              "name": "phone",
              "type": "string"
            }
          ],
          "internalType": "struct Contacts.Contact",
          "name": "",
          "type": "tuple"
        }
      ],
      "stateMutability": "view",
      "type": "function"
    },
    {
      "inputs": [],
      "name": "getContacts",
      "outputs": [
        {
          "components": [
            {
              "internalType": "uint256",
              "name": "id",
              "type": "uint256"
            },
            {
              "internalType": "string",
              "name": "name",
              "type": "string"
            },
            {
              "internalType": "string",
              "name": "phone",
              "type": "string"
            }
          ],
          "internalType": "struct Contacts.Contact[]",
          "name": "",
          "type": "tuple[]"
        }
      ],
      "stateMutability": "view",
      "type": "function"
    },
    {
      "inputs": [
        {
          "internalType": "string",
          "name": "_name",
          "type": "string"
        },
        {
          "internalType": "string",
          "name": "_phone",
          "type": "string"
        }
      ],
      "name": "createContact",
      "outputs": [],
      "stateMutability": "nonpayable",
      "type": "function"
    },
    {
      "inputs": [
        {
          "internalType": "uint256",
          "name": "_id",
          "type": "uint256"
        },
        {
          "internalType": "string",
          "name": "_name",
          "type": "string"
        },
        {
          "internalType": "string",
          "name": "_phone",
          "type": "string"
        }
      ],
      "name": "updateContact",
      "outputs": [],
      "stateMutability": "nonpayable",
      "type": "function"
    },
    {
      "inputs": [
        {
          "internalType": "uint256",
          "name": "_id",
          "type": "uint256"
        }
      ],
      "name": "deleteContact",
      "outputs": [],
      "stateMutability": "nonpayable",
      "type": "function"
    }
  ],
  "bytecode": "0x6080604052600080553480156200001557600080fd5b50620000926040518060400160405280600481526020017f4c756379000000000000000000000000000000000000000000000000000000008152506040518060400160405280600c81526020017f3535352d3535352d3535353500000000000000000000000000000000000000008152506200009860201b60201c565b620002d3565b600060405180606001604052806000548152602001848152602001838152509050806001600080548152602001908152602001600020600082015181600001556020820151816001019080519060200190620000f692919062000137565b5060408201518160020190805190602001906200011592919062000137565b509050506000808154809291906200012d9062000220565b9190505550505050565b82805462000145906200029d565b90600052602060002090601f016020900481019282620001695760008555620001b5565b82601f106200018457805160ff1916838001178555620001b5565b82800160010185558215620001b5579182015b82811115620001b457825182559160200191906001019062000197565b5b509050620001c49190620001c8565b5090565b5b80821115620001e3576000816000905550600101620001c9565b5090565b7f4e487b7100000000000000000000000000000000000000000000000000000000600052601160045260246000fd5b6000819050919050565b60006200022d8262000216565b91507fffffffffffffffffffffffffffffffffffffffffffffffffffffffffffffffff821415620002635762000262620001e7565b5b600182019050919050565b7f4e487b7100000000000000000000000000000000000000000000000000000000600052602260045260246000fd5b60006002820490506001821680620002b657607f821691505b60208210811415620002cd57620002cc6200026e565b5b50919050565b610f3780620002e36000396000f3fe608060405234801561001057600080fd5b506004361061007d5760003560e01c8063b9ed6fca1161005b578063b9ed6fca146100d8578063db920b77146100f4578063e0f478cb14610112578063e6505e1e146101445761007d565b806306661abd146100825780633dce4920146100a05780634cc96eb8146100bc575b600080fd5b61008a610174565b604051610097919061084e565b60405180910390f35b6100ba60048036038101906100b591906109c3565b61017a565b005b6100d660048036038101906100d19190610a67565b610213565b005b6100f260048036038101906100ed9190610af2565b61026e565b005b6100fc6102af565b6040516101099190610ccf565b60405180910390f35b61012c60048036038101906101279190610af2565b61049c565b60405161013b93929190610d3b565b60405180910390f35b61015e60048036038101906101599190610af2565b6105d6565b60405161016b9190610dd7565b60405180910390f35b60005481565b6000604051806060016040528060005481526020018481526020018381525090508060016000805481526020019081526020016000206000820151816000015560208201518160010190805190602001906101d6929190610731565b5060408201518160020190805190602001906101f3929190610731565b5090505060008081548092919061020990610e28565b9190505550505050565b8160016000858152602001908152602001600020600101908051906020019061023d929190610731565b5080600160008581526020019081526020016000206002019080519060200190610268929190610731565b50505050565b6001600082815260200190815260200160002060008082016000905560018201600061029a91906107b7565b6002820160006102aa91906107b7565b505050565b60606000805467ffffffffffffffff8111156102ce576102cd610898565b5b60405190808252806020026020018201604052801561030757816020015b6102f46107f7565b8152602001906001900390816102ec5790505b50905060005b60005481101561049457600160008281526020019081526020016000206040518060600160405290816000820154815260200160018201805461034f90610ea0565b80601f016020809104026020016040519081016040528092919081815260200182805461037b90610ea0565b80156103c85780601f1061039d576101008083540402835291602001916103c8565b820191906000526020600020905b8154815290600101906020018083116103ab57829003601f168201915b505050505081526020016002820180546103e190610ea0565b80601f016020809104026020016040519081016040528092919081815260200182805461040d90610ea0565b801561045a5780601f1061042f5761010080835404028352916020019161045a565b820191906000526020600020905b81548152906001019060200180831161043d57829003601f168201915b50505050508152505082828151811061047657610475610ed2565b5b6020026020010181905250808061048c90610e28565b91505061030d565b508091505090565b60016020528060005260406000206000915090508060000154908060010180546104c590610ea0565b80601f01602080910402602001604051908101604052809291908181526020018280546104f190610ea0565b801561053e5780601f106105135761010080835404028352916020019161053e565b820191906000526020600020905b81548152906001019060200180831161052157829003601f168201915b50505050509080600201805461055390610ea0565b80601f016020809104026020016040519081016040528092919081815260200182805461057f90610ea0565b80156105cc5780601f106105a1576101008083540402835291602001916105cc565b820191906000526020600020905b8154815290600101906020018083116105af57829003601f168201915b5050505050905083565b6105de6107f7565b600160008381526020019081526020016000206040518060600160405290816000820154815260200160018201805461061690610ea0565b80601f016020809104026020016040519081016040528092919081815260200182805461064290610ea0565b801561068f5780601f106106645761010080835404028352916020019161068f565b820191906000526020600020905b81548152906001019060200180831161067257829003601f168201915b505050505081526020016002820180546106a890610ea0565b80601f01602080910402602001604051908101604052809291908181526020018280546106d490610ea0565b80156107215780601f106106f657610100808354040283529160200191610721565b820191906000526020600020905b81548152906001019060200180831161070457829003601f168201915b5050505050815250509050919050565b82805461073d90610ea0565b90600052602060002090601f01602090048101928261075f57600085556107a6565b82601f1061077857805160ff19168380011785556107a6565b828001600101855582156107a6579182015b828111156107a557825182559160200191906001019061078a565b5b5090506107b39190610818565b5090565b5080546107c390610ea0565b6000825580601f106107d557506107f4565b601f0160209004906000526020600020908101906107f39190610818565b5b50565b60405180606001604052806000815260200160608152602001606081525090565b5b80821115610831576000816000905550600101610819565b5090565b6000819050919050565b61084881610835565b82525050565b6000602082019050610863600083018461083f565b92915050565b6000604051905090565b600080fd5b600080fd5b600080fd5b600080fd5b6000601f19601f8301169050919050565b7f4e487b7100000000000000000000000000000000000000000000000000000000600052604160045260246000fd5b6108d082610887565b810181811067ffffffffffffffff821117156108ef576108ee610898565b5b80604052505050565b6000610902610869565b905061090e82826108c7565b919050565b600067ffffffffffffffff82111561092e5761092d610898565b5b61093782610887565b9050602081019050919050565b82818337600083830152505050565b600061096661096184610913565b6108f8565b90508281526020810184848401111561098257610981610882565b5b61098d848285610944565b509392505050565b600082601f8301126109aa576109a961087d565b5b81356109ba848260208601610953565b91505092915050565b600080604083850312156109da576109d9610873565b5b600083013567ffffffffffffffff8111156109f8576109f7610878565b5b610a0485828601610995565b925050602083013567ffffffffffffffff811115610a2557610a24610878565b5b610a3185828601610995565b9150509250929050565b610a4481610835565b8114610a4f57600080fd5b50565b600081359050610a6181610a3b565b92915050565b600080600060608486031215610a8057610a7f610873565b5b6000610a8e86828701610a52565b935050602084013567ffffffffffffffff811115610aaf57610aae610878565b5b610abb86828701610995565b925050604084013567ffffffffffffffff811115610adc57610adb610878565b5b610ae886828701610995565b9150509250925092565b600060208284031215610b0857610b07610873565b5b6000610b1684828501610a52565b91505092915050565b600081519050919050565b600082825260208201905092915050565b6000819050602082019050919050565b610b5481610835565b82525050565b600081519050919050565b600082825260208201905092915050565b60005b83811015610b94578082015181840152602081019050610b79565b83811115610ba3576000848401525b50505050565b6000610bb482610b5a565b610bbe8185610b65565b9350610bce818560208601610b76565b610bd781610887565b840191505092915050565b6000606083016000830151610bfa6000860182610b4b565b5060208301518482036020860152610c128282610ba9565b91505060408301518482036040860152610c2c8282610ba9565b9150508091505092915050565b6000610c458383610be2565b905092915050565b6000602082019050919050565b6000610c6582610b1f565b610c6f8185610b2a565b935083602082028501610c8185610b3b565b8060005b85811015610cbd5784840389528151610c9e8582610c39565b9450610ca983610c4d565b925060208a01995050600181019050610c85565b50829750879550505050505092915050565b60006020820190508181036000830152610ce98184610c5a565b905092915050565b600082825260208201905092915050565b6000610d0d82610b5a565b610d178185610cf1565b9350610d27818560208601610b76565b610d3081610887565b840191505092915050565b6000606082019050610d50600083018661083f565b8181036020830152610d628185610d02565b90508181036040830152610d768184610d02565b9050949350505050565b6000606083016000830151610d986000860182610b4b565b5060208301518482036020860152610db08282610ba9565b91505060408301518482036040860152610dca8282610ba9565b9150508091505092915050565b60006020820190508181036000830152610df18184610d80565b905092915050565b7f4e487b7100000000000000000000000000000000000000000000000000000000600052601160045260246000fd5b6000610e3382610835565b91507fffffffffffffffffffffffffffffffffffffffffffffffffffffffffffffffff821415610e6657610e65610df9565b5b600182019050919050565b7f4e487b7100000000000000000000000000000000000000000000000000000000600052602260045260246000fd5b60006002820490506001821680610eb857607f821691505b60208210811415610ecc57610ecb610e71565b5b50919050565b7f4e487b7100000000000000000000000000000000000000000000000000000000600052603260045260246000fdfea2646970667358221220cd74ad7bef97f28d1fd9d24dcd41b1487bfc7fe9d77898f33c7d276877d6f99364736f6c634300080a0033",
  "immutableReferences": {},
  "source": "pragma solidity ^0.8.10;\n\ncontract Contacts {\n  uint public count = 0; // state variable\n\n  struct Contact {\n    uint id;\n    string name;\n    string phone;\n  }\n\n  mapping(uint => Contact) public contacts;\n\n  constructor() {\n    createContact('Lucy', '555-555-5555');\n  }\n\n  function getContact(uint _id) public view returns (Contact memory) {\n    return contacts[_id];\n  }\n\n  function getContacts() public view returns (Contact[] memory) {\n    Contact[] memory ret = new Contact[](count);\n    for (uint i = 0; i < count; i++) {\n      ret[i] = contacts[i];\n    }\n    return ret;\n  }\n\n  function createContact(string memory _name, string memory _phone) public {\n    Contact memory contact = Contact(count, _name, _phone);\n    contacts[count] = contact;\n    count++;\n  }\n\n  function updateContact(uint _id, string memory _name, string memory _phone) public {\n    contacts[_id].name = _name;\n    contacts[_id].phone = _phone;\n  }\n\n  function deleteContact(uint _id) public {\n    delete contacts[_id];\n  }\n}\n",
  "sourcePath": "/home/ev/Documents/Personal/blockchain-nodejs/api/contracts/Contacts.sol",
  "compiler": {
    "name": "solc",
    "version": "0.8.10+commit.fc410830.Emscripten.clang"
  },
  "schemaVersion": "3.4.7",
  "updatedAt": "2022-05-13T18:04:53.014Z",
  "devdoc": {
    "kind": "dev",
    "methods": {},
    "version": 1
  },
  "userdoc": {
    "kind": "user",
    "methods": {},
    "version": 1
  }
}